{
  "contractName": "ActQualifier",
  "abi": [
    {
      "inputs": [],
      "name": "var2",
      "outputs": [
        {
          "internalType": "int256",
          "name": "",
          "type": "int256"
        }
      ],
      "stateMutability": "view",
      "type": "function"
    },
    {
      "inputs": [],
      "name": "f1",
      "outputs": [
        {
          "internalType": "int256",
          "name": "_total",
          "type": "int256"
        }
      ],
      "stateMutability": "view",
      "type": "function"
    },
    {
      "inputs": [],
      "name": "f2",
      "outputs": [
        {
          "internalType": "int256",
          "name": "_total",
          "type": "int256"
        }
      ],
      "stateMutability": "pure",
      "type": "function"
    },
    {
      "inputs": [],
      "name": "fallback",
      "outputs": [],
      "stateMutability": "payable",
      "type": "function"
    }
  ],
  "bytecode": "0x60806040526005600055600460015534801561001a57600080fd5b506101d48061002a6000396000f3fe60806040526004361061003f5760003560e01c8063507aff5714610044578063552079dc1461006f5780639942ec6f14610079578063c27fc305146100a4575b600080fd5b34801561005057600080fd5b506100596100cf565b6040516100669190610110565b60405180910390f35b6100776100d5565b005b34801561008557600080fd5b5061008e6100d7565b60405161009b9190610110565b60405180910390f35b3480156100b057600080fd5b506100b96100e0565b6040516100c69190610110565b60405180910390f35b60015481565b565b60006008905090565b60006001546000546100f2919061015a565b905090565b6000819050919050565b61010a816100f7565b82525050565b60006020820190506101256000830184610101565b92915050565b7f4e487b7100000000000000000000000000000000000000000000000000000000600052601160045260246000fd5b6000610165826100f7565b9150610170836100f7565b9250828201905082811215600083121683821260008412151617156101985761019761012b565b5b9291505056fea264697066735822122017f8123e82cf34bea1a5a91d943ea9220873c4b03b68d9c59fae022d2877280264736f6c63430008130033",
  "immutableReferences": {},
  "source": "// SPDX-License-Identifier: MIT\r\npragma solidity >=0.5.3;\r\n\r\ncontract ActQualifier {\r\n    int var1 = 5;\r\n    int public var2 = 4;\r\n\r\n    function f1() public view returns (int _total) {\r\n        _total = var1 + var2;\r\n        return _total;\r\n    }\r\n\r\n    function f2() public pure returns (int _total) {\r\n        _total = 3 + 5;\r\n        return _total;\r\n    }\r\n\r\n    function fallback() external payable  {\r\n      \r\n      \r\n    }\r\n    \r\n\r\n}\r\n",
  "sourcePath": "d:\\course\\DDU\\blockchain\\truffle\\contracts\\ActivityQualifier.sol",
  "compiler": {
    "name": "solc",
    "version": "0.8.19+commit.7dd6d404.Emscripten.clang"
  },
  "schemaVersion": "3.4.13",
  "updatedAt": "2023-05-22T07:07:41.744Z",
  "devdoc": {
    "kind": "dev",
    "methods": {},
    "version": 1
  },
  "userdoc": {
    "kind": "user",
    "methods": {},
    "version": 1
  }
}