{
  "contractName": "addressDataType",
  "abi": [
    {
      "inputs": [],
      "stateMutability": "nonpayable",
      "type": "constructor"
    },
    {
      "inputs": [],
      "name": "contract_owner",
      "outputs": [
        {
          "internalType": "address",
          "name": "",
          "type": "address"
        }
      ],
      "stateMutability": "view",
      "type": "function"
    },
    {
      "inputs": [],
      "name": "recipient_address",
      "outputs": [
        {
          "internalType": "address payable",
          "name": "",
          "type": "address"
        }
      ],
      "stateMutability": "view",
      "type": "function"
    },
    {
      "inputs": [],
      "name": "recipient_balance",
      "outputs": [
        {
          "internalType": "uint256",
          "name": "",
          "type": "uint256"
        }
      ],
      "stateMutability": "view",
      "type": "function"
    },
    {
      "inputs": [],
      "name": "transfer_amount",
      "outputs": [
        {
          "internalType": "uint256",
          "name": "",
          "type": "uint256"
        }
      ],
      "stateMutability": "view",
      "type": "function"
    },
    {
      "inputs": [
        {
          "internalType": "address payable",
          "name": "_recipient_address",
          "type": "address"
        }
      ],
      "name": "transferEther",
      "outputs": [
        {
          "internalType": "uint256",
          "name": "",
          "type": "uint256"
        }
      ],
      "stateMutability": "payable",
      "type": "function"
    }
  ],
  "bytecode": "0x608060405234801561001057600080fd5b50336000806101000a81548173ffffffffffffffffffffffffffffffffffffffff021916908373ffffffffffffffffffffffffffffffffffffffff1602179055506103e0806100606000396000f3fe60806040526004361061004a5760003560e01c8063384f58eb1461004f5780636b55e9911461007a5780637e7c5b0c146100aa578063c4ac6bbf146100d5578063c61ffd2914610100575b600080fd5b34801561005b57600080fd5b5061006461012b565b60405161007191906102c1565b60405180910390f35b610094600480360381019061008f919061031f565b61014f565b6040516100a19190610365565b60405180910390f35b3480156100b657600080fd5b506100bf61024e565b6040516100cc9190610365565b60405180910390f35b3480156100e157600080fd5b506100ea610254565b6040516100f7919061038f565b60405180910390f35b34801561010c57600080fd5b5061011561027a565b6040516101229190610365565b60405180910390f35b60008054906101000a900473ffffffffffffffffffffffffffffffffffffffff1681565b600081600160006101000a81548173ffffffffffffffffffffffffffffffffffffffff021916908373ffffffffffffffffffffffffffffffffffffffff16021790555034600281905550600160009054906101000a900473ffffffffffffffffffffffffffffffffffffffff1673ffffffffffffffffffffffffffffffffffffffff166108fc6002549081150290604051600060405180830381858888f19350505050158015610203573d6000803e3d6000fd5b50600160009054906101000a900473ffffffffffffffffffffffffffffffffffffffff1673ffffffffffffffffffffffffffffffffffffffff16316003819055506003549050919050565b60035481565b600160009054906101000a900473ffffffffffffffffffffffffffffffffffffffff1681565b60025481565b600073ffffffffffffffffffffffffffffffffffffffff82169050919050565b60006102ab82610280565b9050919050565b6102bb816102a0565b82525050565b60006020820190506102d660008301846102b2565b92915050565b600080fd5b60006102ec82610280565b9050919050565b6102fc816102e1565b811461030757600080fd5b50565b600081359050610319816102f3565b92915050565b600060208284031215610335576103346102dc565b5b60006103438482850161030a565b91505092915050565b6000819050919050565b61035f8161034c565b82525050565b600060208201905061037a6000830184610356565b92915050565b610389816102e1565b82525050565b60006020820190506103a46000830184610380565b9291505056fea2646970667358221220d0ed6d3015db1640f1f06edb51f7fd06979d8152df51762a24da61a41c48803764736f6c63430008130033",
  "immutableReferences": {},
  "source": "// SPDX-License-Identifier: MIT\r\npragma solidity >=0.5.3;\r\n\r\ncontract addressDataType {\r\n   address public contract_owner;\r\n   address payable public recipient_address;\r\n\r\n   uint public transfer_amount;\r\n   uint public recipient_balance;\r\n\r\n   constructor()  {\r\n      contract_owner = msg.sender;\r\n   }\r\n\r\n   function transferEther(address payable _recipient_address) public payable returns (uint) {\r\n      recipient_address = _recipient_address;\r\n      transfer_amount = msg.value;\r\n      recipient_address.transfer(transfer_amount);\r\n      recipient_balance = recipient_address.balance;\r\n      return recipient_balance;\r\n   }\r\n}\r\n",
  "sourcePath": "d:\\course\\DDU\\blockchain\\truffle\\contracts\\addressExample.sol",
  "compiler": {
    "name": "solc",
    "version": "0.8.19+commit.7dd6d404.Emscripten.clang"
  },
  "schemaVersion": "3.4.13",
  "updatedAt": "2023-05-22T07:07:41.813Z",
  "devdoc": {
    "kind": "dev",
    "methods": {},
    "version": 1
  },
  "userdoc": {
    "kind": "user",
    "methods": {},
    "version": 1
  }
}