{
  "contractName": "B",
  "abi": [
    {
      "inputs": [],
      "name": "a",
      "outputs": [
        {
          "internalType": "contract A",
          "name": "",
          "type": "address"
        }
      ],
      "stateMutability": "view",
      "type": "function"
    },
    {
      "inputs": [],
      "name": "x1",
      "outputs": [
        {
          "internalType": "int256",
          "name": "",
          "type": "int256"
        }
      ],
      "stateMutability": "view",
      "type": "function"
    },
    {
      "inputs": [],
      "name": "x2",
      "outputs": [
        {
          "internalType": "int256",
          "name": "",
          "type": "int256"
        }
      ],
      "stateMutability": "view",
      "type": "function"
    }
  ],
  "bytecode": "0x6080604052604051610010906101a2565b604051809103906000f08015801561002c573d6000803e3d6000fd5b506000806101000a81548173ffffffffffffffffffffffffffffffffffffffff021916908373ffffffffffffffffffffffffffffffffffffffff16021790555060008054906101000a900473ffffffffffffffffffffffffffffffffffffffff1673ffffffffffffffffffffffffffffffffffffffff1663cb8b383b6040518163ffffffff1660e01b8152600401602060405180830381865afa1580156100d7573d6000803e3d6000fd5b505050506040513d601f19601f820116820180604052508101906100fb91906101ea565b60015560008054906101000a900473ffffffffffffffffffffffffffffffffffffffff1673ffffffffffffffffffffffffffffffffffffffff1663d98019256040518163ffffffff1660e01b8152600401602060405180830381865afa158015610169573d6000803e3d6000fd5b505050506040513d601f19601f8201168201806040525081019061018d91906101ea565b60025534801561019c57600080fd5b50610217565b61013b806103fa83390190565b600080fd5b6000819050919050565b6101c7816101b4565b81146101d257600080fd5b50565b6000815190506101e4816101be565b92915050565b600060208284031215610200576101ff6101af565b5b600061020e848285016101d5565b91505092915050565b6101d4806102266000396000f3fe608060405234801561001057600080fd5b50600436106100415760003560e01c80630dbe671f14610046578063343943bd146100645780634ff1357114610082575b600080fd5b61004e6100a0565b60405161005b919061014f565b60405180910390f35b61006c6100c4565b6040516100799190610183565b60405180910390f35b61008a6100ca565b6040516100979190610183565b60405180910390f35b60008054906101000a900473ffffffffffffffffffffffffffffffffffffffff1681565b60015481565b60025481565b600073ffffffffffffffffffffffffffffffffffffffff82169050919050565b6000819050919050565b600061011561011061010b846100d0565b6100f0565b6100d0565b9050919050565b6000610127826100fa565b9050919050565b60006101398261011c565b9050919050565b6101498161012e565b82525050565b60006020820190506101646000830184610140565b92915050565b6000819050919050565b61017d8161016a565b82525050565b60006020820190506101986000830184610174565b9291505056fea264697066735822122076c216f727c4c5096d1ecbc32c34961e1d69277f5c80d45b8df45cc57c3d34cc64736f6c634300081300336080604052600760005534801561001557600080fd5b50610116806100256000396000f3fe6080604052348015600f57600080fd5b5060043610603c5760003560e01c806367e919b6146041578063cb8b383b14605b578063d9801925146075575b600080fd5b6047608f565b6040516052919060c7565b60405180910390f35b60616095565b604051606c919060c7565b60405180910390f35b607b609e565b6040516086919060c7565b60405180910390f35b60005481565b60008054905090565b60008060a76095565b90508091505090565b6000819050919050565b60c18160b0565b82525050565b600060208201905060da600083018460ba565b9291505056fea264697066735822122069357fbec94a17fc0f2d0c5cf9a0886c9151be25ba2138a76d87b700fbb718a664736f6c63430008130033",
  "immutableReferences": {},
  "source": "// SPDX-License-Identifier: MIT\r\npragma solidity >=0.5.3;\r\n\r\ncontract A {\r\n    int public var1 = 7;\r\n\r\n    function getVal1() public view returns (int) {\r\n        return var1;\r\n    }\r\n\r\n    function getVal2() external view returns (int) {\r\n        int x = getVal1();\r\n        return x;\r\n    }\r\n\r\n    function getVal3() private view returns (int) {\r\n        int x = getVal1();\r\n        return x;\r\n    }\r\n\r\n    function getVal4() internal view returns (int) {\r\n        return var1;\r\n    }\r\n}\r\n\r\ncontract B {\r\n    A public a = new A();\r\n    int public x1 = a.getVal1();\r\n    int public x2 = a.getVal2();\r\n    //int public x3 = a.getVal3(); This is private function error\r\n    //int public x4 = a.getVal4();\r\n}\r\n\r\ncontract C is A {\r\n    int public x1 = getVal4();\r\n    //int public x2 = getVal3();\r\n}\r\n",
  "sourcePath": "d:\\course\\DDU\\blockchain\\truffle\\contracts\\visibility.sol",
  "compiler": {
    "name": "solc",
    "version": "0.8.19+commit.7dd6d404.Emscripten.clang"
  },
  "schemaVersion": "3.4.13",
  "updatedAt": "2023-05-22T07:07:41.903Z",
  "devdoc": {
    "kind": "dev",
    "methods": {},
    "version": 1
  },
  "userdoc": {
    "kind": "user",
    "methods": {},
    "version": 1
  }
}