{
  "contractName": "byteExample",
  "abi": [
    {
      "inputs": [],
      "name": "var1",
      "outputs": [
        {
          "internalType": "bytes1",
          "name": "",
          "type": "bytes1"
        }
      ],
      "stateMutability": "view",
      "type": "function"
    },
    {
      "inputs": [],
      "name": "var2",
      "outputs": [
        {
          "internalType": "bytes2",
          "name": "",
          "type": "bytes2"
        }
      ],
      "stateMutability": "view",
      "type": "function"
    },
    {
      "inputs": [],
      "name": "var3",
      "outputs": [
        {
          "internalType": "bytes3",
          "name": "",
          "type": "bytes3"
        }
      ],
      "stateMutability": "view",
      "type": "function"
    },
    {
      "inputs": [],
      "name": "var4",
      "outputs": [
        {
          "internalType": "bytes4",
          "name": "",
          "type": "bytes4"
        }
      ],
      "stateMutability": "view",
      "type": "function"
    },
    {
      "inputs": [
        {
          "internalType": "uint256",
          "name": "i",
          "type": "uint256"
        }
      ],
      "name": "getByte",
      "outputs": [
        {
          "internalType": "bytes1",
          "name": "",
          "type": "bytes1"
        }
      ],
      "stateMutability": "view",
      "type": "function"
    },
    {
      "inputs": [],
      "name": "getLength",
      "outputs": [
        {
          "internalType": "uint256",
          "name": "",
          "type": "uint256"
        }
      ],
      "stateMutability": "view",
      "type": "function"
    }
  ],
  "bytecode": "0x60806040527f61000000000000000000000000000000000000000000000000000000000000006000806101000a81548160ff021916908360f81c02179055507f6162000000000000000000000000000000000000000000000000000000000000600060016101000a81548161ffff021916908360f01c02179055507f6162000000000000000000000000000000000000000000000000000000000000600060036101000a81548162ffffff021916908360e81c0217905550631234567860e01b600060066101000a81548163ffffffff021916908360e01c02179055503480156100e857600080fd5b5061040d806100f86000396000f3fe608060405234801561001057600080fd5b50600436106100625760003560e01c80632a1fd42c14610067578063507aff57146100975780635a412551146100b557806367e919b6146100d3578063be1c766b146100f1578063da96012e1461010f575b600080fd5b610081600480360381019061007c91906101f9565b61012d565b60405161008e9190610261565b60405180910390f35b61009f61015b565b6040516100ac91906102b7565b60405180910390f35b6100bd61016e565b6040516100ca919061030d565b60405180910390f35b6100db610181565b6040516100e89190610261565b60405180910390f35b6100f9610192565b6040516101069190610337565b60405180910390f35b6101176101ab565b604051610124919061038d565b60405180910390f35b60008060039054906101000a900460e81b82600381106101505761014f6103a8565b5b1a60f81b9050919050565b600060019054906101000a900460f01b81565b600060069054906101000a900460e01b81565b60008054906101000a900460f81b81565b60008060069054906101000a905050600460ff16905090565b600060039054906101000a900460e81b81565b600080fd5b6000819050919050565b6101d6816101c3565b81146101e157600080fd5b50565b6000813590506101f3816101cd565b92915050565b60006020828403121561020f5761020e6101be565b5b600061021d848285016101e4565b91505092915050565b60007fff0000000000000000000000000000000000000000000000000000000000000082169050919050565b61025b81610226565b82525050565b60006020820190506102766000830184610252565b92915050565b60007fffff00000000000000000000000000000000000000000000000000000000000082169050919050565b6102b18161027c565b82525050565b60006020820190506102cc60008301846102a8565b92915050565b60007fffffffff0000000000000000000000000000000000000000000000000000000082169050919050565b610307816102d2565b82525050565b600060208201905061032260008301846102fe565b92915050565b610331816101c3565b82525050565b600060208201905061034c6000830184610328565b92915050565b60007fffffff000000000000000000000000000000000000000000000000000000000082169050919050565b61038781610352565b82525050565b60006020820190506103a2600083018461037e565b92915050565b7f4e487b7100000000000000000000000000000000000000000000000000000000600052603260045260246000fdfea26469706673582212205cc54c75e5ec93284dc642c023b50743b989ae5ae9e289ace580a7af039f307d64736f6c63430008130033",
  "immutableReferences": {},
  "source": "// SPDX-License-Identifier: MIT\r\npragma solidity >=0.5.3;\r\n\r\ncontract byteExample {\r\n    bytes1 public var1 = \"a\";\r\n    bytes2 public var2 = \"ab\";\r\n    bytes3 public var3 = \"ab\";\r\n    bytes4 public var4 = 0x12345678;\r\n\r\n    function getByte(uint i) public view returns (bytes1) {\r\n        return var3[i];\r\n    }\r\n\r\n    function getLength() public view returns (uint) {\r\n        return var4.length;\r\n    }\r\n}\r\n",
  "sourcePath": "d:\\course\\DDU\\blockchain\\truffle\\contracts\\byteexample.sol",
  "compiler": {
    "name": "solc",
    "version": "0.8.19+commit.7dd6d404.Emscripten.clang"
  },
  "schemaVersion": "3.4.13",
  "updatedAt": "2023-05-22T07:07:41.819Z",
  "devdoc": {
    "kind": "dev",
    "methods": {},
    "version": 1
  },
  "userdoc": {
    "kind": "user",
    "methods": {},
    "version": 1
  }
}