{
  "contractName": "C",
  "abi": [
    {
      "inputs": [],
      "name": "getVal1",
      "outputs": [
        {
          "internalType": "int256",
          "name": "",
          "type": "int256"
        }
      ],
      "stateMutability": "view",
      "type": "function"
    },
    {
      "inputs": [],
      "name": "getVal2",
      "outputs": [
        {
          "internalType": "int256",
          "name": "",
          "type": "int256"
        }
      ],
      "stateMutability": "view",
      "type": "function"
    },
    {
      "inputs": [],
      "name": "var1",
      "outputs": [
        {
          "internalType": "int256",
          "name": "",
          "type": "int256"
        }
      ],
      "stateMutability": "view",
      "type": "function"
    },
    {
      "inputs": [],
      "name": "x1",
      "outputs": [
        {
          "internalType": "int256",
          "name": "",
          "type": "int256"
        }
      ],
      "stateMutability": "view",
      "type": "function"
    }
  ],
  "bytecode": "0x6080604052600760005561001761002c60201b60201c565b60015534801561002657600080fd5b50610035565b60008054905090565b61015c806100446000396000f3fe608060405234801561001057600080fd5b506004361061004c5760003560e01c8063343943bd1461005157806367e919b61461006f578063cb8b383b1461008d578063d9801925146100ab575b600080fd5b6100596100c9565b604051610066919061010b565b60405180910390f35b6100776100cf565b604051610084919061010b565b60405180910390f35b6100956100d5565b6040516100a2919061010b565b60405180910390f35b6100b36100de565b6040516100c0919061010b565b60405180910390f35b60015481565b60005481565b60008054905090565b6000806100e96100d5565b90508091505090565b6000819050919050565b610105816100f2565b82525050565b600060208201905061012060008301846100fc565b9291505056fea2646970667358221220229205c44e023a164a4991f87204b8d317dcd3c40fccdd69ff1b7409406d466564736f6c63430008130033",
  "immutableReferences": {},
  "source": "// SPDX-License-Identifier: MIT\r\npragma solidity >=0.5.3;\r\n\r\ncontract A {\r\n    int public var1 = 7;\r\n\r\n    function getVal1() public view returns (int) {\r\n        return var1;\r\n    }\r\n\r\n    function getVal2() external view returns (int) {\r\n        int x = getVal1();\r\n        return x;\r\n    }\r\n\r\n    function getVal3() private view returns (int) {\r\n        int x = getVal1();\r\n        return x;\r\n    }\r\n\r\n    function getVal4() internal view returns (int) {\r\n        return var1;\r\n    }\r\n}\r\n\r\ncontract B {\r\n    A public a = new A();\r\n    int public x1 = a.getVal1();\r\n    int public x2 = a.getVal2();\r\n    //int public x3 = a.getVal3(); This is private function error\r\n    //int public x4 = a.getVal4();\r\n}\r\n\r\ncontract C is A {\r\n    int public x1 = getVal4();\r\n    //int public x2 = getVal3();\r\n}\r\n",
  "sourcePath": "d:\\course\\DDU\\blockchain\\truffle\\contracts\\visibility.sol",
  "compiler": {
    "name": "solc",
    "version": "0.8.19+commit.7dd6d404.Emscripten.clang"
  },
  "schemaVersion": "3.4.13",
  "updatedAt": "2023-05-22T07:07:41.958Z",
  "devdoc": {
    "kind": "dev",
    "methods": {},
    "version": 1
  },
  "userdoc": {
    "kind": "user",
    "methods": {},
    "version": 1
  }
}