{
  "contractName": "EmpNames",
  "abi": [
    {
      "inputs": [
        {
          "internalType": "string",
          "name": "_empn",
          "type": "string"
        },
        {
          "internalType": "uint256",
          "name": "_age",
          "type": "uint256"
        }
      ],
      "stateMutability": "nonpayable",
      "type": "constructor"
    },
    {
      "inputs": [],
      "name": "getEmp",
      "outputs": [
        {
          "internalType": "string",
          "name": "",
          "type": "string"
        },
        {
          "internalType": "uint256",
          "name": "",
          "type": "uint256"
        }
      ],
      "stateMutability": "view",
      "type": "function"
    },
    {
      "inputs": [
        {
          "internalType": "string",
          "name": "_empn",
          "type": "string"
        },
        {
          "internalType": "uint256",
          "name": "_age",
          "type": "uint256"
        }
      ],
      "name": "setEmp",
      "outputs": [],
      "stateMutability": "nonpayable",
      "type": "function"
    }
  ],
  "bytecode": "0x60806040523480156200001157600080fd5b5060405162000caf38038062000caf833981810160405281019062000037919062000226565b8160009081620000489190620004cd565b50806001819055505050620005b4565b6000604051905090565b600080fd5b600080fd5b600080fd5b600080fd5b6000601f19601f8301169050919050565b7f4e487b7100000000000000000000000000000000000000000000000000000000600052604160045260246000fd5b620000c18262000076565b810181811067ffffffffffffffff82111715620000e357620000e262000087565b5b80604052505050565b6000620000f862000058565b9050620001068282620000b6565b919050565b600067ffffffffffffffff82111562000129576200012862000087565b5b620001348262000076565b9050602081019050919050565b60005b838110156200016157808201518184015260208101905062000144565b60008484015250505050565b6000620001846200017e846200010b565b620000ec565b905082815260208101848484011115620001a357620001a262000071565b5b620001b084828562000141565b509392505050565b600082601f830112620001d057620001cf6200006c565b5b8151620001e28482602086016200016d565b91505092915050565b6000819050919050565b6200020081620001eb565b81146200020c57600080fd5b50565b6000815190506200022081620001f5565b92915050565b6000806040838503121562000240576200023f62000062565b5b600083015167ffffffffffffffff81111562000261576200026062000067565b5b6200026f85828601620001b8565b925050602062000282858286016200020f565b9150509250929050565b600081519050919050565b7f4e487b7100000000000000000000000000000000000000000000000000000000600052602260045260246000fd5b60006002820490506001821680620002df57607f821691505b602082108103620002f557620002f462000297565b5b50919050565b60008190508160005260206000209050919050565b60006020601f8301049050919050565b600082821b905092915050565b6000600883026200035f7fffffffffffffffffffffffffffffffffffffffffffffffffffffffffffffffff8262000320565b6200036b868362000320565b95508019841693508086168417925050509392505050565b6000819050919050565b6000620003ae620003a8620003a284620001eb565b62000383565b620001eb565b9050919050565b6000819050919050565b620003ca836200038d565b620003e2620003d982620003b5565b8484546200032d565b825550505050565b600090565b620003f9620003ea565b62000406818484620003bf565b505050565b5b818110156200042e5762000422600082620003ef565b6001810190506200040c565b5050565b601f8211156200047d576200044781620002fb565b620004528462000310565b8101602085101562000462578190505b6200047a620004718562000310565b8301826200040b565b50505b505050565b600082821c905092915050565b6000620004a26000198460080262000482565b1980831691505092915050565b6000620004bd83836200048f565b9150826002028217905092915050565b620004d8826200028c565b67ffffffffffffffff811115620004f457620004f362000087565b5b620005008254620002c6565b6200050d82828562000432565b600060209050601f83116001811462000545576000841562000530578287015190505b6200053c8582620004af565b865550620005ac565b601f1984166200055586620002fb565b60005b828110156200057f5784890151825560018201915060208501945060208101905062000558565b868310156200059f57848901516200059b601f8916826200048f565b8355505b6001600288020188555050505b505050505050565b6106eb80620005c46000396000f3fe608060405234801561001057600080fd5b50600436106100365760003560e01c806355f736d21461003b5780637db3979014610057575b600080fd5b610055600480360381019061005091906102bd565b610076565b005b61005f610091565b60405161006d9291906103a7565b60405180910390f35b816000908161008591906105e3565b50806001819055505050565b60606000806001548180546100a590610406565b80601f01602080910402602001604051908101604052809291908181526020018280546100d190610406565b801561011e5780601f106100f35761010080835404028352916020019161011e565b820191906000526020600020905b81548152906001019060200180831161010157829003601f168201915b50505050509150915091509091565b6000604051905090565b600080fd5b600080fd5b600080fd5b600080fd5b6000601f19601f8301169050919050565b7f4e487b7100000000000000000000000000000000000000000000000000000000600052604160045260246000fd5b6101948261014b565b810181811067ffffffffffffffff821117156101b3576101b261015c565b5b80604052505050565b60006101c661012d565b90506101d2828261018b565b919050565b600067ffffffffffffffff8211156101f2576101f161015c565b5b6101fb8261014b565b9050602081019050919050565b82818337600083830152505050565b600061022a610225846101d7565b6101bc565b90508281526020810184848401111561024657610245610146565b5b610251848285610208565b509392505050565b600082601f83011261026e5761026d610141565b5b813561027e848260208601610217565b91505092915050565b6000819050919050565b61029a81610287565b81146102a557600080fd5b50565b6000813590506102b781610291565b92915050565b600080604083850312156102d4576102d3610137565b5b600083013567ffffffffffffffff8111156102f2576102f161013c565b5b6102fe85828601610259565b925050602061030f858286016102a8565b9150509250929050565b600081519050919050565b600082825260208201905092915050565b60005b83811015610353578082015181840152602081019050610338565b60008484015250505050565b600061036a82610319565b6103748185610324565b9350610384818560208601610335565b61038d8161014b565b840191505092915050565b6103a181610287565b82525050565b600060408201905081810360008301526103c1818561035f565b90506103d06020830184610398565b9392505050565b7f4e487b7100000000000000000000000000000000000000000000000000000000600052602260045260246000fd5b6000600282049050600182168061041e57607f821691505b602082108103610431576104306103d7565b5b50919050565b60008190508160005260206000209050919050565b60006020601f8301049050919050565b600082821b905092915050565b6000600883026104997fffffffffffffffffffffffffffffffffffffffffffffffffffffffffffffffff8261045c565b6104a3868361045c565b95508019841693508086168417925050509392505050565b6000819050919050565b60006104e06104db6104d684610287565b6104bb565b610287565b9050919050565b6000819050919050565b6104fa836104c5565b61050e610506826104e7565b848454610469565b825550505050565b600090565b610523610516565b61052e8184846104f1565b505050565b5b818110156105525761054760008261051b565b600181019050610534565b5050565b601f8211156105975761056881610437565b6105718461044c565b81016020851015610580578190505b61059461058c8561044c565b830182610533565b50505b505050565b600082821c905092915050565b60006105ba6000198460080261059c565b1980831691505092915050565b60006105d383836105a9565b9150826002028217905092915050565b6105ec82610319565b67ffffffffffffffff8111156106055761060461015c565b5b61060f8254610406565b61061a828285610556565b600060209050601f83116001811461064d576000841561063b578287015190505b61064585826105c7565b8655506106ad565b601f19841661065b86610437565b60005b828110156106835784890151825560018201915060208501945060208101905061065e565b868310156106a0578489015161069c601f8916826105a9565b8355505b6001600288020188555050505b50505050505056fea264697066735822122054654b62b1e773b0f9f688a84ff2fa67f30e11270ad527d445e7a0c3b6d6d68164736f6c63430008130033",
  "immutableReferences": {},
  "source": "// SPDX-License-Identifier: MIT\r\npragma solidity >=0.4.0  < 0.9.0;\r\n\r\ncontract EmpNames {\r\n   string Empn;\r\n   uint age;\r\n   \r\n   constructor(string memory _empn, uint _age) public{\r\n      Empn = _empn;\r\n      age  = _age;\r\n   }\r\n   \r\n   function getEmp() public view returns (string memory, uint){\r\n      return (Empn, age);\r\n   }\r\n   \r\n   function setEmp(string memory _empn, uint _age) public{\r\n      Empn = _empn;\r\n      age = _age;\r\n   }\r\n}",
  "sourcePath": "d:\\course\\DDU\\blockchain\\truffle\\contracts\\Empdetails.sol",
  "compiler": {
    "name": "solc",
    "version": "0.8.19+commit.7dd6d404.Emscripten.clang"
  },
  "schemaVersion": "3.4.13",
  "updatedAt": "2023-05-22T07:07:41.755Z",
  "devdoc": {
    "kind": "dev",
    "methods": {},
    "version": 1
  },
  "userdoc": {
    "kind": "user",
    "methods": {},
    "version": 1
  }
}