{
  "contractName": "enumsExample",
  "abi": [
    {
      "inputs": [
        {
          "internalType": "uint256",
          "name": "_claim_amount",
          "type": "uint256"
        }
      ],
      "name": "setStatus",
      "outputs": [],
      "stateMutability": "nonpayable",
      "type": "function"
    },
    {
      "inputs": [],
      "name": "getStatus",
      "outputs": [
        {
          "internalType": "enum enumsExample.ClaimStatus",
          "name": "",
          "type": "uint8"
        }
      ],
      "stateMutability": "view",
      "type": "function"
    }
  ],
  "bytecode": "0x608060405234801561001057600080fd5b5061022b806100206000396000f3fe608060405234801561001057600080fd5b50600436106100365760003560e01c80634e69d5601461003b57806369ba1a7514610059575b600080fd5b610043610075565b6040516100509190610172565b60405180910390f35b610073600480360381019061006e91906101c8565b61008b565b005b60008060009054906101000a900460ff16905090565b60648111156100c35760016000806101000a81548160ff021916908360018111156100b9576100b86100fb565b5b02179055506100f8565b60648110156100f75760008060006101000a81548160ff021916908360018111156100f1576100f06100fb565b5b02179055505b5b50565b7f4e487b7100000000000000000000000000000000000000000000000000000000600052602160045260246000fd5b6002811061013b5761013a6100fb565b5b50565b600081905061014c8261012a565b919050565b600061015c8261013e565b9050919050565b61016c81610151565b82525050565b60006020820190506101876000830184610163565b92915050565b600080fd5b6000819050919050565b6101a581610192565b81146101b057600080fd5b50565b6000813590506101c28161019c565b92915050565b6000602082840312156101de576101dd61018d565b5b60006101ec848285016101b3565b9150509291505056fea26469706673582212205c73661dbf8c4e658673efc3c1239f24fba804938242f70db71126a20878910a64736f6c63430008130033",
  "immutableReferences": {},
  "source": "// SPDX-License-Identifier: MIT\r\npragma solidity >=0.5.3;\r\n\r\ncontract enumsExample {\r\n    enum ClaimStatus {\r\n        Approved,\r\n        Rejected\r\n    }\r\n\r\n    ClaimStatus status;\r\n\r\n    function setStatus(uint _claim_amount) public {\r\n        if (_claim_amount > 100) {\r\n            status = ClaimStatus.Rejected;\r\n        } else if (_claim_amount < 100) {\r\n            status = ClaimStatus.Approved;\r\n        }\r\n    }\r\n\r\n    function getStatus() public view returns (ClaimStatus) {\r\n        return status;\r\n    }\r\n}\r\n",
  "sourcePath": "d:\\course\\DDU\\blockchain\\truffle\\contracts\\enumexample.sol",
  "compiler": {
    "name": "solc",
    "version": "0.8.19+commit.7dd6d404.Emscripten.clang"
  },
  "schemaVersion": "3.4.13",
  "updatedAt": "2023-05-22T07:07:41.833Z",
  "devdoc": {
    "kind": "dev",
    "methods": {},
    "version": 1
  },
  "userdoc": {
    "kind": "user",
    "methods": {},
    "version": 1
  }
}