{
  "contractName": "FixedArrays",
  "abi": [
    {
      "inputs": [
        {
          "internalType": "uint256",
          "name": "",
          "type": "uint256"
        }
      ],
      "name": "num1",
      "outputs": [
        {
          "internalType": "uint256",
          "name": "",
          "type": "uint256"
        }
      ],
      "stateMutability": "view",
      "type": "function"
    },
    {
      "inputs": [
        {
          "internalType": "uint256",
          "name": "",
          "type": "uint256"
        }
      ],
      "name": "num2",
      "outputs": [
        {
          "internalType": "uint8",
          "name": "",
          "type": "uint8"
        }
      ],
      "stateMutability": "view",
      "type": "function"
    },
    {
      "inputs": [],
      "name": "var1",
      "outputs": [
        {
          "internalType": "bytes1",
          "name": "",
          "type": "bytes1"
        }
      ],
      "stateMutability": "view",
      "type": "function"
    },
    {
      "inputs": [],
      "name": "var2",
      "outputs": [
        {
          "internalType": "bytes2",
          "name": "",
          "type": "bytes2"
        }
      ],
      "stateMutability": "view",
      "type": "function"
    },
    {
      "inputs": [],
      "name": "var3",
      "outputs": [
        {
          "internalType": "bytes3",
          "name": "",
          "type": "bytes3"
        }
      ],
      "stateMutability": "view",
      "type": "function"
    },
    {
      "inputs": [],
      "name": "var4",
      "outputs": [
        {
          "internalType": "bytes4",
          "name": "",
          "type": "bytes4"
        }
      ],
      "stateMutability": "view",
      "type": "function"
    },
    {
      "inputs": [
        {
          "internalType": "uint256",
          "name": "i",
          "type": "uint256"
        }
      ],
      "name": "getBytes",
      "outputs": [
        {
          "internalType": "bytes1",
          "name": "",
          "type": "bytes1"
        }
      ],
      "stateMutability": "view",
      "type": "function"
    },
    {
      "inputs": [],
      "name": "getBytesLength",
      "outputs": [
        {
          "internalType": "uint256",
          "name": "",
          "type": "uint256"
        }
      ],
      "stateMutability": "view",
      "type": "function"
    },
    {
      "inputs": [
        {
          "internalType": "uint256",
          "name": "i",
          "type": "uint256"
        },
        {
          "internalType": "uint8",
          "name": "_num2",
          "type": "uint8"
        }
      ],
      "name": "setInt",
      "outputs": [],
      "stateMutability": "nonpayable",
      "type": "function"
    },
    {
      "inputs": [],
      "name": "getIntLength",
      "outputs": [
        {
          "internalType": "uint256",
          "name": "",
          "type": "uint256"
        }
      ],
      "stateMutability": "view",
      "type": "function"
    }
  ],
  "bytecode": "0x60806040527f61000000000000000000000000000000000000000000000000000000000000006000806101000a81548160ff021916908360f81c02179055507f6162000000000000000000000000000000000000000000000000000000000000600060016101000a81548161ffff021916908360f01c02179055507f6162630000000000000000000000000000000000000000000000000000000000600060036101000a81548162ffffff021916908360e81c0217905550631234567860e01b600060066101000a81548163ffffffff021916908360e01c02179055506040518060400160405280600160ff168152602001600260ff16815250600190600261010992919061011c565b5034801561011657600080fd5b5061017e565b8260028101928215610150579160200282015b8281111561014f578251829060ff1690559160200191906001019061012f565b5b50905061015d9190610161565b5090565b5b8082111561017a576000816000905550600101610162565b5090565b61060d8061018d6000396000f3fe608060405234801561001057600080fd5b506004361061009e5760003560e01c80635a412551116100665780635a4125511461015d57806367e919b61461017b5780636ff23b79146101995780638e3abf4e146101b5578063da96012e146101e55761009e565b806307da3eae146100a35780633a7ed083146100c15780634f01ede9146100f1578063507aff571461010f57806357bc2ef31461012d575b600080fd5b6100ab610203565b6040516100b89190610334565b60405180910390f35b6100db60048036038101906100d69190610380565b61021c565b6040516100e891906103c9565b60405180910390f35b6100f9610246565b6040516101069190610334565b60405180910390f35b61011761024f565b604051610124919061041f565b60405180910390f35b61014760048036038101906101429190610380565b610262565b6040516101549190610475565b60405180910390f35b610165610290565b60405161017291906104cb565b60405180910390f35b6101836102a3565b6040516101909190610475565b60405180910390f35b6101b360048036038101906101ae9190610512565b6102b4565b005b6101cf60048036038101906101ca9190610380565b6102ed565b6040516101dc9190610334565b60405180910390f35b6101ed610308565b6040516101fa919061058d565b60405180910390f35b60008060039054906101000a905050600360ff16905090565b6003816003811061022c57600080fd5b60209182820401919006915054906101000a900460ff1681565b60006003905090565b600060019054906101000a900460f01b81565b60008060039054906101000a900460e81b8260038110610285576102846105a8565b5b1a60f81b9050919050565b600060069054906101000a900460e01b81565b60008054906101000a900460f81b81565b80600383600381106102c9576102c86105a8565b5b602091828204019190066101000a81548160ff021916908360ff1602179055505050565b600181600281106102fd57600080fd5b016000915090505481565b600060039054906101000a900460e81b81565b6000819050919050565b61032e8161031b565b82525050565b60006020820190506103496000830184610325565b92915050565b600080fd5b61035d8161031b565b811461036857600080fd5b50565b60008135905061037a81610354565b92915050565b6000602082840312156103965761039561034f565b5b60006103a48482850161036b565b91505092915050565b600060ff82169050919050565b6103c3816103ad565b82525050565b60006020820190506103de60008301846103ba565b92915050565b60007fffff00000000000000000000000000000000000000000000000000000000000082169050919050565b610419816103e4565b82525050565b60006020820190506104346000830184610410565b92915050565b60007fff0000000000000000000000000000000000000000000000000000000000000082169050919050565b61046f8161043a565b82525050565b600060208201905061048a6000830184610466565b92915050565b60007fffffffff0000000000000000000000000000000000000000000000000000000082169050919050565b6104c581610490565b82525050565b60006020820190506104e060008301846104bc565b92915050565b6104ef816103ad565b81146104fa57600080fd5b50565b60008135905061050c816104e6565b92915050565b600080604083850312156105295761052861034f565b5b60006105378582860161036b565b9250506020610548858286016104fd565b9150509250929050565b60007fffffff000000000000000000000000000000000000000000000000000000000082169050919050565b61058781610552565b82525050565b60006020820190506105a2600083018461057e565b92915050565b7f4e487b7100000000000000000000000000000000000000000000000000000000600052603260045260246000fdfea2646970667358221220bd0ee238057a07d22e33a59604165f9a4fab22f14a35f6dd7144e0f4711bf27064736f6c63430008130033",
  "immutableReferences": {},
  "source": "// SPDX-License-Identifier: MIT\r\npragma solidity >=0.5.3;\r\n\r\ncontract FixedArrays {\r\n    bytes1 public var1 = \"a\";\r\n    bytes2 public var2 = \"ab\";\r\n    bytes3 public var3 = \"abc\";\r\n    bytes4 public var4 = 0x12345678;\r\n\r\n    uint[2] public num1 = [1, 2];\r\n    uint8[3] public num2;\r\n\r\n    function getBytes(uint i) public view returns (bytes1) {\r\n        return var3[i];\r\n    }\r\n\r\n    function getBytesLength() public view returns (uint) {\r\n        return var3.length;\r\n    }\r\n\r\n    function setInt(uint i, uint8 _num2) public {\r\n        num2[i] = _num2;\r\n    }\r\n\r\n    function getIntLength() public view returns (uint) {\r\n        return num2.length;\r\n    }\r\n}\r\n",
  "sourcePath": "d:\\course\\DDU\\blockchain\\truffle\\contracts\\Fixedarray.sol",
  "compiler": {
    "name": "solc",
    "version": "0.8.19+commit.7dd6d404.Emscripten.clang"
  },
  "schemaVersion": "3.4.13",
  "updatedAt": "2023-05-22T07:07:41.777Z",
  "devdoc": {
    "kind": "dev",
    "methods": {},
    "version": 1
  },
  "userdoc": {
    "kind": "user",
    "methods": {},
    "version": 1
  }
}