{
  "contractName": "Functions",
  "abi": [
    {
      "inputs": [],
      "name": "var1",
      "outputs": [
        {
          "internalType": "int256",
          "name": "",
          "type": "int256"
        }
      ],
      "stateMutability": "view",
      "type": "function"
    },
    {
      "inputs": [],
      "name": "var2",
      "outputs": [
        {
          "internalType": "int256",
          "name": "",
          "type": "int256"
        }
      ],
      "stateMutability": "view",
      "type": "function"
    },
    {
      "inputs": [
        {
          "internalType": "int256",
          "name": "_var1",
          "type": "int256"
        },
        {
          "internalType": "int256",
          "name": "_var2",
          "type": "int256"
        }
      ],
      "name": "setValues",
      "outputs": [],
      "stateMutability": "nonpayable",
      "type": "function"
    },
    {
      "inputs": [],
      "name": "getValues",
      "outputs": [
        {
          "internalType": "int256",
          "name": "_total",
          "type": "int256"
        }
      ],
      "stateMutability": "view",
      "type": "function"
    }
  ],
  "bytecode": "0x608060405234801561001057600080fd5b506101c9806100206000396000f3fe608060405234801561001057600080fd5b506004361061004c5760003560e01c806319eb4a901461005157806337d08d421461006f578063507aff571461008b57806367e919b6146100a9575b600080fd5b6100596100c7565b6040516100669190610107565b60405180910390f35b61008960048036038101906100849190610153565b6100d0565b005b6100936100e2565b6040516100a09190610107565b60405180910390f35b6100b16100e8565b6040516100be9190610107565b60405180910390f35b60008054905090565b81600081905550806001819055505050565b60015481565b60005481565b6000819050919050565b610101816100ee565b82525050565b600060208201905061011c60008301846100f8565b92915050565b600080fd5b610130816100ee565b811461013b57600080fd5b50565b60008135905061014d81610127565b92915050565b6000806040838503121561016a57610169610122565b5b60006101788582860161013e565b92505060206101898582860161013e565b915050925092905056fea2646970667358221220d3d25eeb9d755edbf49ebaa3bca85c0e6cc30853508372e1b821d65d0940313864736f6c63430008130033",
  "immutableReferences": {},
  "source": "// SPDX-License-Identifier: MIT\r\npragma solidity >=0.5.3;\r\ncontract Functions{\r\n\r\n int public var1;\r\n int public var2;\r\n\r\n //Setter Function\r\n\r\n function setValues(int _var1, int _var2) public {\r\n var1 = _var1;\r\n var2 = _var2;\r\n }\r\n\r\n //getter function\r\n function getValues() public view returns(int _total){\r\n _total = var1;\r\n }\r\n}",
  "sourcePath": "d:\\course\\DDU\\blockchain\\truffle\\contracts\\function.sol",
  "compiler": {
    "name": "solc",
    "version": "0.8.19+commit.7dd6d404.Emscripten.clang"
  },
  "schemaVersion": "3.4.13",
  "updatedAt": "2023-05-22T07:07:41.838Z",
  "devdoc": {
    "kind": "dev",
    "methods": {},
    "version": 1
  },
  "userdoc": {
    "kind": "user",
    "methods": {},
    "version": 1
  }
}