{
  "contractName": "Global",
  "abi": [
    {
      "inputs": [
        {
          "internalType": "uint256",
          "name": "_blockNumber",
          "type": "uint256"
        }
      ],
      "name": "getBlkHash",
      "outputs": [
        {
          "internalType": "bytes32",
          "name": "",
          "type": "bytes32"
        }
      ],
      "stateMutability": "view",
      "type": "function"
    },
    {
      "inputs": [],
      "name": "getMinAddr",
      "outputs": [
        {
          "internalType": "address payable",
          "name": "",
          "type": "address"
        }
      ],
      "stateMutability": "view",
      "type": "function"
    },
    {
      "inputs": [],
      "name": "getBlkGasLimit",
      "outputs": [
        {
          "internalType": "uint256",
          "name": "",
          "type": "uint256"
        }
      ],
      "stateMutability": "view",
      "type": "function"
    },
    {
      "inputs": [],
      "name": "getBlkNum",
      "outputs": [
        {
          "internalType": "uint256",
          "name": "",
          "type": "uint256"
        }
      ],
      "stateMutability": "view",
      "type": "function"
    },
    {
      "inputs": [],
      "name": "getBlkTS",
      "outputs": [
        {
          "internalType": "uint256",
          "name": "",
          "type": "uint256"
        }
      ],
      "stateMutability": "view",
      "type": "function"
    },
    {
      "inputs": [],
      "name": "gasLeft",
      "outputs": [
        {
          "internalType": "uint256",
          "name": "",
          "type": "uint256"
        }
      ],
      "stateMutability": "view",
      "type": "function"
    },
    {
      "inputs": [
        {
          "internalType": "bytes",
          "name": "_var1",
          "type": "bytes"
        }
      ],
      "name": "getMsgData",
      "outputs": [
        {
          "internalType": "bytes",
          "name": "",
          "type": "bytes"
        }
      ],
      "stateMutability": "pure",
      "type": "function"
    },
    {
      "inputs": [],
      "name": "getMsgSender",
      "outputs": [
        {
          "internalType": "address",
          "name": "",
          "type": "address"
        }
      ],
      "stateMutability": "view",
      "type": "function"
    },
    {
      "inputs": [],
      "name": "getMsgSig",
      "outputs": [
        {
          "internalType": "bytes4",
          "name": "",
          "type": "bytes4"
        }
      ],
      "stateMutability": "pure",
      "type": "function"
    },
    {
      "inputs": [],
      "name": "setMsgValue",
      "outputs": [
        {
          "internalType": "uint256",
          "name": "",
          "type": "uint256"
        }
      ],
      "stateMutability": "payable",
      "type": "function"
    },
    {
      "inputs": [],
      "name": "getBlkTSNow",
      "outputs": [
        {
          "internalType": "uint256",
          "name": "",
          "type": "uint256"
        }
      ],
      "stateMutability": "view",
      "type": "function"
    },
    {
      "inputs": [],
      "name": "getGasPrice",
      "outputs": [
        {
          "internalType": "uint256",
          "name": "",
          "type": "uint256"
        }
      ],
      "stateMutability": "view",
      "type": "function"
    },
    {
      "inputs": [],
      "name": "getOriginAddr",
      "outputs": [
        {
          "internalType": "address",
          "name": "",
          "type": "address"
        }
      ],
      "stateMutability": "view",
      "type": "function"
    },
    {
      "inputs": [
        {
          "internalType": "uint256",
          "name": "x",
          "type": "uint256"
        },
        {
          "internalType": "uint256",
          "name": "y",
          "type": "uint256"
        },
        {
          "internalType": "uint256",
          "name": "k",
          "type": "uint256"
        }
      ],
      "name": "getAddMod",
      "outputs": [
        {
          "internalType": "uint256",
          "name": "",
          "type": "uint256"
        }
      ],
      "stateMutability": "pure",
      "type": "function"
    },
    {
      "inputs": [
        {
          "internalType": "uint256",
          "name": "x",
          "type": "uint256"
        },
        {
          "internalType": "uint256",
          "name": "y",
          "type": "uint256"
        },
        {
          "internalType": "uint256",
          "name": "k",
          "type": "uint256"
        }
      ],
      "name": "getMulMod",
      "outputs": [
        {
          "internalType": "uint256",
          "name": "",
          "type": "uint256"
        }
      ],
      "stateMutability": "pure",
      "type": "function"
    },
    {
      "inputs": [
        {
          "internalType": "bytes",
          "name": "_input",
          "type": "bytes"
        }
      ],
      "name": "getKaccak256",
      "outputs": [
        {
          "internalType": "bytes32",
          "name": "_output",
          "type": "bytes32"
        }
      ],
      "stateMutability": "pure",
      "type": "function"
    },
    {
      "inputs": [],
      "name": "getThis",
      "outputs": [
        {
          "internalType": "uint256",
          "name": "",
          "type": "uint256"
        }
      ],
      "stateMutability": "view",
      "type": "function"
    },
    {
      "inputs": [
        {
          "internalType": "address payable",
          "name": "_address",
          "type": "address"
        }
      ],
      "name": "setDestructContract",
      "outputs": [],
      "stateMutability": "nonpayable",
      "type": "function"
    },
    {
      "inputs": [],
      "name": "getAbiEncode",
      "outputs": [
        {
          "internalType": "bytes",
          "name": "",
          "type": "bytes"
        }
      ],
      "stateMutability": "pure",
      "type": "function"
    },
    {
      "inputs": [],
      "name": "getAbiEncodePacked",
      "outputs": [
        {
          "internalType": "bytes",
          "name": "",
          "type": "bytes"
        }
      ],
      "stateMutability": "pure",
      "type": "function"
    },
    {
      "inputs": [],
      "name": "getKeccak256AEP",
      "outputs": [
        {
          "internalType": "uint256",
          "name": "",
          "type": "uint256"
        }
      ],
      "stateMutability": "pure",
      "type": "function"
    }
  ],
  "bytecode": "0x608060405234801561001057600080fd5b50610d44806100206000396000f3fe60806040526004361061012a5760003560e01c80635a8f6d71116100ab578063b995b7681161006f578063b995b768146103cb578063e70687f5146103f4578063ece093ba14610431578063f3b820511461045c578063f64054ac14610487578063f8d2c46c146104c45761012a565b80635a8f6d7114610301578063603ea3c71461032c5780637a6ce2e1146103575780637e3bb46c14610382578063b8368615146103a05761012a565b8063226aab4b116100f2578063226aab4b1461022a578063267b20fe146102555780632ddb301b14610280578063437737ba146102ab578063455259cb146102d65761012a565b80630754d81a1461012f5780630ee2e5631461016c578063113cbc3b14610197578063154cfe64146101c25780631fd793da146101ed575b600080fd5b34801561013b57600080fd5b506101566004803603810190610151919061084d565b610501565b6040516101639190610915565b60405180910390f35b34801561017857600080fd5b50610181610588565b60405161018e9190610978565b60405180910390f35b3480156101a357600080fd5b506101ac610590565b6040516101b991906109ac565b60405180910390f35b3480156101ce57600080fd5b506101d7610598565b6040516101e491906109ac565b60405180910390f35b3480156101f957600080fd5b50610214600480360381019061020f91906109f3565b6105c7565b60405161022191906109ac565b60405180910390f35b34801561023657600080fd5b5061023f6105e4565b60405161024c91906109ac565b60405180910390f35b34801561026157600080fd5b5061026a6105ec565b6040516102779190610a67565b60405180910390f35b34801561028c57600080fd5b506102956105f4565b6040516102a291906109ac565b60405180910390f35b3480156102b757600080fd5b506102c06105fc565b6040516102cd9190610915565b60405180910390f35b3480156102e257600080fd5b506102eb610621565b6040516102f891906109ac565b60405180910390f35b34801561030d57600080fd5b50610316610629565b6040516103239190610abd565b60405180910390f35b34801561033857600080fd5b50610341610654565b60405161034e9190610915565b60405180910390f35b34801561036357600080fd5b5061036c610679565b6040516103799190610a67565b60405180910390f35b61038a610681565b60405161039791906109ac565b60405180910390f35b3480156103ac57600080fd5b506103b5610689565b6040516103c291906109ac565b60405180910390f35b3480156103d757600080fd5b506103f260048036038101906103ed9190610b04565b610691565b005b34801561040057600080fd5b5061041b6004803603810190610416919061084d565b6106aa565b6040516104289190610b4a565b60405180910390f35b34801561043d57600080fd5b506104466106bb565b60405161045391906109ac565b60405180910390f35b34801561046857600080fd5b506104716106c3565b60405161047e91906109ac565b60405180910390f35b34801561049357600080fd5b506104ae60048036038101906104a991906109f3565b6106cb565b6040516104bb91906109ac565b60405180910390f35b3480156104d057600080fd5b506104eb60048036038101906104e69190610b65565b6106e8565b6040516104f89190610b4a565b60405180910390f35b60606040518060400160405280600181526020017f610000000000000000000000000000000000000000000000000000000000000081525091506000368080601f016020809104026020016040519081016040528093929190818152602001838380828437600081840152601f19601f820116905080830192505050505050509050919050565b600041905090565b600043905090565b60006040516020016105a990610c35565b6040516020818303038152906040528051906020012060001c905090565b600081806105d8576105d7610c55565b5b83850890509392505050565b600045905090565b600032905090565b60005a905090565b606060405160200161060d90610cdb565b604051602081830303815290604052905090565b60003a905090565b600080357fffffffff0000000000000000000000000000000000000000000000000000000016905090565b606060405160200161066590610c35565b604051602081830303815290604052905090565b600033905090565b600034905090565b600047905090565b8073ffffffffffffffffffffffffffffffffffffffff16ff5b600081805190602001209050919050565b600042905090565b600042905090565b600081806106dc576106db610c55565b5b83850990509392505050565b600081409050919050565b6000604051905090565b600080fd5b600080fd5b600080fd5b600080fd5b6000601f19601f8301169050919050565b7f4e487b7100000000000000000000000000000000000000000000000000000000600052604160045260246000fd5b61075a82610711565b810181811067ffffffffffffffff8211171561077957610778610722565b5b80604052505050565b600061078c6106f3565b90506107988282610751565b919050565b600067ffffffffffffffff8211156107b8576107b7610722565b5b6107c182610711565b9050602081019050919050565b82818337600083830152505050565b60006107f06107eb8461079d565b610782565b90508281526020810184848401111561080c5761080b61070c565b5b6108178482856107ce565b509392505050565b600082601f83011261083457610833610707565b5b81356108448482602086016107dd565b91505092915050565b600060208284031215610863576108626106fd565b5b600082013567ffffffffffffffff81111561088157610880610702565b5b61088d8482850161081f565b91505092915050565b600081519050919050565b600082825260208201905092915050565b60005b838110156108d05780820151818401526020810190506108b5565b60008484015250505050565b60006108e782610896565b6108f181856108a1565b93506109018185602086016108b2565b61090a81610711565b840191505092915050565b6000602082019050818103600083015261092f81846108dc565b905092915050565b600073ffffffffffffffffffffffffffffffffffffffff82169050919050565b600061096282610937565b9050919050565b61097281610957565b82525050565b600060208201905061098d6000830184610969565b92915050565b6000819050919050565b6109a681610993565b82525050565b60006020820190506109c1600083018461099d565b92915050565b6109d081610993565b81146109db57600080fd5b50565b6000813590506109ed816109c7565b92915050565b600080600060608486031215610a0c57610a0b6106fd565b5b6000610a1a868287016109de565b9350506020610a2b868287016109de565b9250506040610a3c868287016109de565b9150509250925092565b6000610a5182610937565b9050919050565b610a6181610a46565b82525050565b6000602082019050610a7c6000830184610a58565b92915050565b60007fffffffff0000000000000000000000000000000000000000000000000000000082169050919050565b610ab781610a82565b82525050565b6000602082019050610ad26000830184610aae565b92915050565b610ae181610957565b8114610aec57600080fd5b50565b600081359050610afe81610ad8565b92915050565b600060208284031215610b1a57610b196106fd565b5b6000610b2884828501610aef565b91505092915050565b6000819050919050565b610b4481610b31565b82525050565b6000602082019050610b5f6000830184610b3b565b92915050565b600060208284031215610b7b57610b7a6106fd565b5b6000610b89848285016109de565b91505092915050565b600081905092915050565b7f6162630000000000000000000000000000000000000000000000000000000000600082015250565b6000610bd3600383610b92565b9150610bde82610b9d565b600382019050919050565b7f6465660000000000000000000000000000000000000000000000000000000000600082015250565b6000610c1f600383610b92565b9150610c2a82610be9565b600382019050919050565b6000610c4082610bc6565b9150610c4b82610c12565b9150819050919050565b7f4e487b7100000000000000000000000000000000000000000000000000000000600052601260045260246000fd5b600082825260208201905092915050565b6000610ca2600383610c84565b9150610cad82610b9d565b602082019050919050565b6000610cc5600383610c84565b9150610cd082610be9565b602082019050919050565b60006040820190508181036000830152610cf481610c95565b90508181036020830152610d0781610cb8565b905091905056fea2646970667358221220485237ce7d395aa62277e40b67e0049d37a6b86a4a678b860f888658243181ce64736f6c63430008130033",
  "immutableReferences": {},
  "source": "// SPDX-License-Identifier: MIT\r\npragma solidity >=0.5.3;\r\n\r\ncontract Global {\r\n    //1 - blockhash\r\n    function getBlkHash(uint _blockNumber) public view returns (bytes32) {\r\n        return blockhash(_blockNumber);\r\n    }\r\n\r\n    //2 - block.coinbase\r\n\r\n    function getMinAddr() public view returns (address payable) {\r\n        return block.coinbase;\r\n    }\r\n\r\n    //3 - block.difficulty\r\n\r\n    function getBlkGasLimit() public view returns (uint) {\r\n        return block.gaslimit;\r\n    }\r\n\r\n    //4 - block._blockNumber\r\n\r\n    function getBlkNum() public view returns (uint) {\r\n        return block.number;\r\n    }\r\n\r\n    // 5- block.timestamp;\r\n\r\n    function getBlkTS() public view returns (uint) {\r\n        return block.timestamp;\r\n    }\r\n\r\n    //6 - gasleft\r\n    function gasLeft() public view returns (uint256) {\r\n        return gasleft();\r\n    }\r\n\r\n    //7 - msg.data\r\n\r\n    function getMsgData(bytes memory _var1) public pure returns (bytes memory) {\r\n        _var1 = \"a\";\r\n        return msg.data;\r\n    }\r\n\r\n    //8 - msg.sender\r\n    function getMsgSender() public view returns (address) {\r\n        return msg.sender;\r\n    }\r\n\r\n    //9 - msg.sig\r\n    function getMsgSig() public pure returns (bytes4) {\r\n        return msg.sig;\r\n    }\r\n\r\n    //10 - msg.value\r\n    function setMsgValue() public payable returns (uint) {\r\n        return msg.value;\r\n    }\r\n\r\n    //11 - now\r\n    function getBlkTSNow() public view returns (uint) {\r\n        return block.timestamp;\r\n    }\r\n\r\n    //12 - tx.gasprice\r\n\r\n    function getGasPrice() public view returns (uint) {\r\n        return tx.gasprice;\r\n    }\r\n\r\n    //13 - tx.origin\r\n\r\n    function getOriginAddr() public view returns (address) {\r\n        return tx.origin;\r\n    }\r\n\r\n    // Mathematical & Cryptographic functions\r\n\r\n    //14 - addmod = (3+5) % 6 = 8 % 6 = 2\r\n    function getAddMod(uint x, uint y, uint k) public pure returns (uint) {\r\n        return addmod(x, y, k);\r\n    }\r\n\r\n    //15 - mulmod = (3*5) % 6 = 15 % 6 = 3\r\n    //14 - addmod\r\n    function getMulMod(uint x, uint y, uint k) public pure returns (uint) {\r\n        return mulmod(x, y, k);\r\n    }\r\n\r\n    //16 keccak256\r\n\r\n    function getKaccak256(\r\n        bytes memory _input\r\n    ) public pure returns (bytes32 _output) {\r\n        return keccak256(_input);\r\n    }\r\n\r\n    //Contract related\r\n\r\n    //17 - this\r\n    function getThis() public view returns (uint) {\r\n        return address(this).balance;\r\n    }\r\n\r\n    //18 - selfdestruct\r\n    function setDestructContract(address payable _address) public {\r\n        selfdestruct(_address);\r\n    }\r\n\r\n    //ABI functions\r\n\r\n    //19 - abi.encode\r\n\r\n    //- ABI functions\r\n\r\n    //19 - abi.encode\r\n\r\n    function getAbiEncode() public pure returns (bytes memory) {\r\n        return abi.encode(\"abc\", \"def\");\r\n    }\r\n\r\n    //20 - abi.encodePacked\r\n\r\n    function getAbiEncodePacked() public pure returns (bytes memory) {\r\n        return abi.encodePacked(\"abc\", \"def\");\r\n    }\r\n\r\n    function getKeccak256AEP() public pure returns (uint) {\r\n        return uint(keccak256(abi.encodePacked(\"abc\", \"def\")));\r\n    }\r\n}\r\n",
  "sourcePath": "d:\\course\\DDU\\blockchain\\truffle\\contracts\\Global.sol",
  "compiler": {
    "name": "solc",
    "version": "0.8.19+commit.7dd6d404.Emscripten.clang"
  },
  "schemaVersion": "3.4.13",
  "updatedAt": "2023-05-22T07:07:41.787Z",
  "devdoc": {
    "kind": "dev",
    "methods": {},
    "version": 1
  },
  "userdoc": {
    "kind": "user",
    "methods": {},
    "version": 1
  }
}