{
  "contractName": "IntBoolExample",
  "abi": [
    {
      "inputs": [],
      "name": "flagVar",
      "outputs": [
        {
          "internalType": "bool",
          "name": "",
          "type": "bool"
        }
      ],
      "stateMutability": "view",
      "type": "function"
    },
    {
      "inputs": [],
      "name": "intVar16",
      "outputs": [
        {
          "internalType": "int16",
          "name": "",
          "type": "int16"
        }
      ],
      "stateMutability": "view",
      "type": "function"
    },
    {
      "inputs": [],
      "name": "intVar8",
      "outputs": [
        {
          "internalType": "int8",
          "name": "",
          "type": "int8"
        }
      ],
      "stateMutability": "view",
      "type": "function"
    },
    {
      "inputs": [],
      "name": "uintVar8",
      "outputs": [
        {
          "internalType": "uint8",
          "name": "",
          "type": "uint8"
        }
      ],
      "stateMutability": "view",
      "type": "function"
    },
    {
      "inputs": [
        {
          "internalType": "int8",
          "name": "_intVar8",
          "type": "int8"
        },
        {
          "internalType": "uint8",
          "name": "_uintVar8",
          "type": "uint8"
        },
        {
          "internalType": "bool",
          "name": "_flagVar",
          "type": "bool"
        }
      ],
      "name": "setIntBool",
      "outputs": [],
      "stateMutability": "nonpayable",
      "type": "function"
    }
  ],
  "bytecode": "0x60806040527fffffffffffffffffffffffffffffffffffffffffffffffffffffffffffffff806000806101000a81548160ff021916908360000b60ff160217905550612710600060016101000a81548161ffff021916908360010b61ffff16021790555060ff600060036101000a81548160ff021916908360ff1602179055506001600060046101000a81548160ff0219169083151502179055503480156100a657600080fd5b5061037e806100b66000396000f3fe608060405234801561001057600080fd5b50600436106100575760003560e01c80630bd2ab831461005c578063305af5351461007a578063bf460cca14610098578063ed8223ce146100b6578063fd5f1a48146100d2575b600080fd5b6100646100f0565b60405161007191906101ad565b60405180910390f35b610082610103565b60405161008f91906101e4565b60405180910390f35b6100a0610116565b6040516100ad919061021a565b60405180910390f35b6100d060048036038101906100cb91906102cb565b610129565b005b6100da610180565b6040516100e7919061032d565b60405180910390f35b600060039054906101000a900460ff1681565b600060019054906101000a900460010b81565b600060049054906101000a900460ff1681565b826000806101000a81548160ff021916908360000b60ff16021790555081600060036101000a81548160ff021916908360ff16021790555080600060046101000a81548160ff021916908315150217905550505050565b60008054906101000a900460000b81565b600060ff82169050919050565b6101a781610191565b82525050565b60006020820190506101c2600083018461019e565b92915050565b60008160010b9050919050565b6101de816101c8565b82525050565b60006020820190506101f960008301846101d5565b92915050565b60008115159050919050565b610214816101ff565b82525050565b600060208201905061022f600083018461020b565b92915050565b600080fd5b60008160000b9050919050565b6102508161023a565b811461025b57600080fd5b50565b60008135905061026d81610247565b92915050565b61027c81610191565b811461028757600080fd5b50565b60008135905061029981610273565b92915050565b6102a8816101ff565b81146102b357600080fd5b50565b6000813590506102c58161029f565b92915050565b6000806000606084860312156102e4576102e3610235565b5b60006102f28682870161025e565b93505060206103038682870161028a565b9250506040610314868287016102b6565b9150509250925092565b6103278161023a565b82525050565b6000602082019050610342600083018461031e565b9291505056fea26469706673582212202a900955e7254794e090269e4bd4e9eaf571af91eb2d4dd785c094b4148234e264736f6c63430008130033",
  "immutableReferences": {},
  "source": "// SPDX-License-Identifier: MIT\r\npragma solidity  >=0.5.3;\r\n\r\ncontract IntBoolExample {\r\n   int8 public intVar8 = -128;\r\n   int16 public intVar16 = 10000;\r\n   uint8 public uintVar8 = 255;\r\n   bool public flagVar = true;\r\n\r\n   function setIntBool(int8 _intVar8, uint8 _uintVar8, bool _flagVar) public {\r\n      intVar8 = _intVar8;\r\n      uintVar8 = _uintVar8;\r\n      flagVar = _flagVar;\r\n   }\r\n}\r\n",
  "sourcePath": "d:\\course\\DDU\\blockchain\\truffle\\contracts\\Intbool.sol",
  "compiler": {
    "name": "solc",
    "version": "0.8.19+commit.7dd6d404.Emscripten.clang"
  },
  "schemaVersion": "3.4.13",
  "updatedAt": "2023-05-22T07:07:41.797Z",
  "devdoc": {
    "kind": "dev",
    "methods": {},
    "version": 1
  },
  "userdoc": {
    "kind": "user",
    "methods": {},
    "version": 1
  }
}