{
  "contractName": "structTrading",
  "abi": [
    {
      "inputs": [],
      "name": "cryptoTrading",
      "outputs": [
        {
          "internalType": "uint256",
          "name": "tradeid",
          "type": "uint256"
        },
        {
          "internalType": "uint256",
          "name": "quantity",
          "type": "uint256"
        },
        {
          "internalType": "uint256",
          "name": "price",
          "type": "uint256"
        },
        {
          "internalType": "string",
          "name": "traderName",
          "type": "string"
        }
      ],
      "stateMutability": "view",
      "type": "function"
    },
    {
      "inputs": [
        {
          "internalType": "uint256",
          "name": "",
          "type": "uint256"
        }
      ],
      "name": "cryptoTrading1",
      "outputs": [
        {
          "internalType": "uint256",
          "name": "tradeid",
          "type": "uint256"
        },
        {
          "internalType": "uint256",
          "name": "quantity",
          "type": "uint256"
        },
        {
          "internalType": "uint256",
          "name": "price",
          "type": "uint256"
        },
        {
          "internalType": "string",
          "name": "traderName",
          "type": "string"
        }
      ],
      "stateMutability": "view",
      "type": "function"
    },
    {
      "inputs": [
        {
          "internalType": "uint256",
          "name": "_tradeid",
          "type": "uint256"
        },
        {
          "internalType": "uint256",
          "name": "_quantity",
          "type": "uint256"
        },
        {
          "internalType": "uint256",
          "name": "_price",
          "type": "uint256"
        },
        {
          "internalType": "string",
          "name": "_traderName",
          "type": "string"
        }
      ],
      "name": "setStruct",
      "outputs": [],
      "stateMutability": "nonpayable",
      "type": "function"
    },
    {
      "inputs": [
        {
          "internalType": "uint256",
          "name": "_tradeid",
          "type": "uint256"
        },
        {
          "internalType": "uint256",
          "name": "_quantity",
          "type": "uint256"
        },
        {
          "internalType": "uint256",
          "name": "_price",
          "type": "uint256"
        },
        {
          "internalType": "string",
          "name": "_traderName",
          "type": "string"
        }
      ],
      "name": "setStruct1",
      "outputs": [],
      "stateMutability": "nonpayable",
      "type": "function"
    },
    {
      "inputs": [],
      "name": "getStruct",
      "outputs": [
        {
          "internalType": "uint256",
          "name": "",
          "type": "uint256"
        },
        {
          "internalType": "uint256",
          "name": "",
          "type": "uint256"
        },
        {
          "internalType": "uint256",
          "name": "",
          "type": "uint256"
        },
        {
          "internalType": "string",
          "name": "",
          "type": "string"
        }
      ],
      "stateMutability": "view",
      "type": "function"
    }
  ],
  "bytecode": "0x608060405234801561001057600080fd5b50610a20806100206000396000f3fe608060405234801561001057600080fd5b50600436106100575760003560e01c806309b1b3f21461005c57806321d6b5b21461007d5780638b9730e614610099578063931bfe9b146100cc578063d2b2246d146100e8575b600080fd5b610064610109565b604051610074949392919061049b565b60405180910390f35b6100976004803603810190610092919061065c565b6101c0565b005b6100b360048036038101906100ae91906106df565b61024e565b6040516100c3949392919061049b565b60405180910390f35b6100e660048036038101906100e1919061065c565b610316565b005b6100f061034c565b604051610100949392919061049b565b60405180910390f35b60008060006060600080015460006001015460006002015460006003018080546101329061073b565b80601f016020809104026020016040519081016040528092919081815260200182805461015e9061073b565b80156101ab5780601f10610180576101008083540402835291602001916101ab565b820191906000526020600020905b81548152906001019060200180831161018e57829003601f168201915b50505050509050935093509350935090919293565b60006040518060800160405280868152602001858152602001848152602001838152509050600481908060018154018082558091505060019003906000526020600020906004020160009091909190915060008201518160000155602082015181600101556040820151816002015560608201518160030190816102449190610918565b5050505050505050565b6004818154811061025e57600080fd5b90600052602060002090600402016000915090508060000154908060010154908060020154908060030180546102939061073b565b80601f01602080910402602001604051908101604052809291908181526020018280546102bf9061073b565b801561030c5780601f106102e15761010080835404028352916020019161030c565b820191906000526020600020905b8154815290600101906020018083116102ef57829003601f168201915b5050505050905084565b836000800181905550826000600101819055508160006002018190555080600060030190816103459190610918565b5050505050565b600080600001549080600101549080600201549080600301805461036f9061073b565b80601f016020809104026020016040519081016040528092919081815260200182805461039b9061073b565b80156103e85780601f106103bd576101008083540402835291602001916103e8565b820191906000526020600020905b8154815290600101906020018083116103cb57829003601f168201915b5050505050905084565b6000819050919050565b610405816103f2565b82525050565b600081519050919050565b600082825260208201905092915050565b60005b8381101561044557808201518184015260208101905061042a565b60008484015250505050565b6000601f19601f8301169050919050565b600061046d8261040b565b6104778185610416565b9350610487818560208601610427565b61049081610451565b840191505092915050565b60006080820190506104b060008301876103fc565b6104bd60208301866103fc565b6104ca60408301856103fc565b81810360608301526104dc8184610462565b905095945050505050565b6000604051905090565b600080fd5b600080fd5b610504816103f2565b811461050f57600080fd5b50565b600081359050610521816104fb565b92915050565b600080fd5b600080fd5b7f4e487b7100000000000000000000000000000000000000000000000000000000600052604160045260246000fd5b61056982610451565b810181811067ffffffffffffffff8211171561058857610587610531565b5b80604052505050565b600061059b6104e7565b90506105a78282610560565b919050565b600067ffffffffffffffff8211156105c7576105c6610531565b5b6105d082610451565b9050602081019050919050565b82818337600083830152505050565b60006105ff6105fa846105ac565b610591565b90508281526020810184848401111561061b5761061a61052c565b5b6106268482856105dd565b509392505050565b600082601f83011261064357610642610527565b5b81356106538482602086016105ec565b91505092915050565b60008060008060808587031215610676576106756104f1565b5b600061068487828801610512565b945050602061069587828801610512565b93505060406106a687828801610512565b925050606085013567ffffffffffffffff8111156106c7576106c66104f6565b5b6106d38782880161062e565b91505092959194509250565b6000602082840312156106f5576106f46104f1565b5b600061070384828501610512565b91505092915050565b7f4e487b7100000000000000000000000000000000000000000000000000000000600052602260045260246000fd5b6000600282049050600182168061075357607f821691505b6020821081036107665761076561070c565b5b50919050565b60008190508160005260206000209050919050565b60006020601f8301049050919050565b600082821b905092915050565b6000600883026107ce7fffffffffffffffffffffffffffffffffffffffffffffffffffffffffffffffff82610791565b6107d88683610791565b95508019841693508086168417925050509392505050565b6000819050919050565b600061081561081061080b846103f2565b6107f0565b6103f2565b9050919050565b6000819050919050565b61082f836107fa565b61084361083b8261081c565b84845461079e565b825550505050565b600090565b61085861084b565b610863818484610826565b505050565b5b818110156108875761087c600082610850565b600181019050610869565b5050565b601f8211156108cc5761089d8161076c565b6108a684610781565b810160208510156108b5578190505b6108c96108c185610781565b830182610868565b50505b505050565b600082821c905092915050565b60006108ef600019846008026108d1565b1980831691505092915050565b600061090883836108de565b9150826002028217905092915050565b6109218261040b565b67ffffffffffffffff81111561093a57610939610531565b5b610944825461073b565b61094f82828561088b565b600060209050601f8311600181146109825760008415610970578287015190505b61097a85826108fc565b8655506109e2565b601f1984166109908661076c565b60005b828110156109b857848901518255600182019150602085019450602081019050610993565b868310156109d557848901516109d1601f8916826108de565b8355505b6001600288020188555050505b50505050505056fea264697066735822122055f4279bb960f78270b1b333cb87e452ef8a5726be5aa32d957a1eb59947012464736f6c63430008130033",
  "immutableReferences": {},
  "source": "// SPDX-License-Identifier: MIT\r\npragma solidity >=0.5.3;\r\n\r\ncontract structTrading {\r\n    struct Trading {\r\n        uint tradeid;\r\n        uint quantity;\r\n        uint price;\r\n        string traderName;\r\n    }\r\n\r\n    Trading public cryptoTrading;\r\n    Trading[] public cryptoTrading1;\r\n\r\n    function setStruct(\r\n        uint _tradeid,\r\n        uint _quantity,\r\n        uint _price,\r\n        string memory _traderName\r\n    ) public {\r\n        cryptoTrading.tradeid = _tradeid;\r\n        cryptoTrading.quantity = _quantity;\r\n        cryptoTrading.price = _price;\r\n        cryptoTrading.traderName = _traderName;\r\n    }\r\n\r\n    function setStruct1(\r\n        uint _tradeid,\r\n        uint _quantity,\r\n        uint _price,\r\n        string memory _traderName\r\n    ) public {\r\n        Trading memory tempTradeStruct = Trading({\r\n            tradeid: _tradeid,\r\n            quantity: _quantity,\r\n            price: _price,\r\n            traderName: _traderName\r\n        });\r\n\r\n        cryptoTrading1.push(tempTradeStruct);\r\n    }\r\n\r\n    function getStruct() public view returns (uint, uint, uint, string memory) {\r\n        return (\r\n            cryptoTrading.tradeid,\r\n            cryptoTrading.quantity,\r\n            cryptoTrading.price,\r\n            cryptoTrading.traderName\r\n        );\r\n    }\r\n}\r\n",
  "sourcePath": "d:\\course\\DDU\\blockchain\\truffle\\contracts\\structs.sol",
  "compiler": {
    "name": "solc",
    "version": "0.8.19+commit.7dd6d404.Emscripten.clang"
  },
  "schemaVersion": "3.4.13",
  "updatedAt": "2023-05-22T07:07:41.886Z",
  "devdoc": {
    "kind": "dev",
    "methods": {},
    "version": 1
  },
  "userdoc": {
    "kind": "user",
    "methods": {},
    "version": 1
  }
}