{
  "contractName": "Vartypes",
  "abi": [
    {
      "inputs": [],
      "name": "statevar1",
      "outputs": [
        {
          "internalType": "int256",
          "name": "",
          "type": "int256"
        }
      ],
      "stateMutability": "view",
      "type": "function"
    },
    {
      "inputs": [],
      "name": "statevar2",
      "outputs": [
        {
          "internalType": "string",
          "name": "",
          "type": "string"
        }
      ],
      "stateMutability": "view",
      "type": "function"
    },
    {
      "inputs": [],
      "name": "f1",
      "outputs": [],
      "stateMutability": "nonpayable",
      "type": "function"
    }
  ],
  "bytecode": "0x608060405234801561001057600080fd5b506105ae806100206000396000f3fe608060405234801561001057600080fd5b50600436106100415760003560e01c8063a894ccd514610046578063aa74ed1e14610064578063c27fc30514610082575b600080fd5b61004e61008c565b60405161005b919061020b565b60405180910390f35b61006c61011a565b6040516100799190610246565b60405180910390f35b61008a610120565b005b6001805461009990610290565b80601f01602080910402602001604051908101604052809291908181526020018280546100c590610290565b80156101125780601f106100e757610100808354040283529160200191610112565b820191906000526020600020905b8154815290600101906020018083116100f557829003601f168201915b505050505081565b60005481565b60006002905060006040518060400160405280600581526020017f6d69686972000000000000000000000000000000000000000000000000000000815250905081600081905550806001908161017691906104a6565b505050565b600081519050919050565b600082825260208201905092915050565b60005b838110156101b557808201518184015260208101905061019a565b60008484015250505050565b6000601f19601f8301169050919050565b60006101dd8261017b565b6101e78185610186565b93506101f7818560208601610197565b610200816101c1565b840191505092915050565b6000602082019050818103600083015261022581846101d2565b905092915050565b6000819050919050565b6102408161022d565b82525050565b600060208201905061025b6000830184610237565b92915050565b7f4e487b7100000000000000000000000000000000000000000000000000000000600052602260045260246000fd5b600060028204905060018216806102a857607f821691505b6020821081036102bb576102ba610261565b5b50919050565b7f4e487b7100000000000000000000000000000000000000000000000000000000600052604160045260246000fd5b60008190508160005260206000209050919050565b60006020601f8301049050919050565b600082821b905092915050565b6000600883026103527fffffffffffffffffffffffffffffffffffffffffffffffffffffffffffffffff82610315565b61035c8683610315565b95508019841693508086168417925050509392505050565b6000819050919050565b6000819050919050565b60006103a361039e61039984610374565b61037e565b610374565b9050919050565b6000819050919050565b6103bd83610388565b6103d16103c9826103aa565b848454610322565b825550505050565b600090565b6103e66103d9565b6103f18184846103b4565b505050565b5b818110156104155761040a6000826103de565b6001810190506103f7565b5050565b601f82111561045a5761042b816102f0565b61043484610305565b81016020851015610443578190505b61045761044f85610305565b8301826103f6565b50505b505050565b600082821c905092915050565b600061047d6000198460080261045f565b1980831691505092915050565b6000610496838361046c565b9150826002028217905092915050565b6104af8261017b565b67ffffffffffffffff8111156104c8576104c76102c1565b5b6104d28254610290565b6104dd828285610419565b600060209050601f83116001811461051057600084156104fe578287015190505b610508858261048a565b865550610570565b601f19841661051e866102f0565b60005b8281101561054657848901518255600182019150602085019450602081019050610521565b86831015610563578489015161055f601f89168261046c565b8355505b6001600288020188555050505b50505050505056fea264697066735822122062c1340c09fb78386d19df64e7f93a20d902a6a47695653e0a0403ee1cb1143d64736f6c63430008130033",
  "immutableReferences": {},
  "source": "// SPDX-License-Identifier: MIT\r\npragma solidity >=0.5.0 <0.9.0;\r\n\r\ncontract Vartypes {\r\n   int public statevar1;\r\n   string public statevar2;\r\n   \r\n   function f1() public{\r\n      int _var1 =2;\r\n      string memory _var2 = \"mihir\";\r\n      statevar1  = _var1;\r\n      statevar2 = _var2;\r\n   }\r\n}",
  "sourcePath": "d:\\course\\DDU\\blockchain\\truffle\\contracts\\Variable.sol",
  "compiler": {
    "name": "solc",
    "version": "0.8.19+commit.7dd6d404.Emscripten.clang"
  },
  "schemaVersion": "3.4.13",
  "updatedAt": "2023-05-22T07:07:41.804Z",
  "devdoc": {
    "kind": "dev",
    "methods": {},
    "version": 1
  },
  "userdoc": {
    "kind": "user",
    "methods": {},
    "version": 1
  }
}